{
  "contractName": "ArtWork",
  "abi": [
    {
      "inputs": [],
      "stateMutability": "nonpayable",
      "type": "constructor"
    },
    {
      "inputs": [],
      "name": "owner",
      "outputs": [
        {
          "internalType": "address",
          "name": "",
          "type": "address"
        }
      ],
      "stateMutability": "view",
      "type": "function",
      "constant": true
    },
    {
      "inputs": [
        {
          "internalType": "uint256",
          "name": "",
          "type": "uint256"
        }
      ],
      "name": "postings",
      "outputs": [
        {
          "internalType": "uint256",
          "name": "price",
          "type": "uint256"
        },
        {
          "internalType": "address",
          "name": "owner",
          "type": "address"
        },
        {
          "internalType": "string",
          "name": "name",
          "type": "string"
        },
        {
          "internalType": "string",
          "name": "description",
          "type": "string"
        },
        {
          "internalType": "string",
          "name": "image",
          "type": "string"
        },
        {
          "internalType": "uint256",
          "name": "exptime",
          "type": "uint256"
        }
      ],
      "stateMutability": "view",
      "type": "function",
      "constant": true
    },
    {
      "inputs": [
        {
          "internalType": "uint256",
          "name": "_index",
          "type": "uint256"
        }
      ],
      "name": "buyArt",
      "outputs": [],
      "stateMutability": "payable",
      "type": "function",
      "payable": true
    },
    {
      "inputs": [
        {
          "internalType": "uint256",
          "name": "_index",
          "type": "uint256"
        }
      ],
      "name": "check_sufficient_funds",
      "outputs": [
        {
          "internalType": "bool",
          "name": "",
          "type": "bool"
        }
      ],
      "stateMutability": "payable",
      "type": "function",
      "payable": true
    },
    {
      "inputs": [
        {
          "internalType": "uint256",
          "name": "_index",
          "type": "uint256"
        }
      ],
      "name": "check_if_available",
      "outputs": [
        {
          "internalType": "bool",
          "name": "",
          "type": "bool"
        }
      ],
      "stateMutability": "view",
      "type": "function",
      "constant": true
    }
  ],
  "bytecode": "0x6080604052336000806101000a81548173ffffffffffffffffffffffffffffffffffffffff021916908373ffffffffffffffffffffffffffffffffffffffff1602179055503480156200005157600080fd5b50670429d069189e0000600160006008811062000073576200007262000ea5565b5b60060201600001819055506000600160006008811062000098576200009762000ea5565b5b6006020160010160006101000a81548173ffffffffffffffffffffffffffffffffffffffff021916908373ffffffffffffffffffffffffffffffffffffffff1602179055506040518060400160405280600681526020017f536d696c6579000000000000000000000000000000000000000000000000000081525060016000600881106200012b576200012a62000ea5565b5b6006020160020190816200014091906200114e565b5060405180606001604052806028815260200162001d4060289139600160006008811062000173576200017262000ea5565b5b6006020160030190816200018891906200114e565b5060405180608001604052806056815260200162001be8605691396001600060088110620001bb57620001ba62000ea5565b5b600602016004019081620001d091906200114e565b50603c42620001e0919062001264565b6001600060088110620001f857620001f762000ea5565b5b6006020160050181905550670de0b6b3a76400006001806008811062000223576200022262000ea5565b5b600602016000018190555060006001806008811062000247576200024662000ea5565b5b6006020160010160006101000a81548173ffffffffffffffffffffffffffffffffffffffff021916908373ffffffffffffffffffffffffffffffffffffffff1602179055506040518060400160405280600781526020017f446573706169720000000000000000000000000000000000000000000000000081525060018060088110620002d957620002d862000ea5565b5b600602016002019081620002ee91906200114e565b506040518060400160405280601081526020017f4c6f7374206f6620416c6c20486f706500000000000000000000000000000000815250600180600881106200033c576200033b62000ea5565b5b6006020160030190816200035191906200114e565b5060405180608001604052806056815260200162001cea605691396001806008811062000383576200038262000ea5565b5b6006020160040190816200039891906200114e565b5061012c42620003a9919062001264565b60018060088110620003c057620003bf62000ea5565b5b60060201600501819055506709b6e64a8ec600006001600260088110620003ec57620003eb62000ea5565b5b60060201600001819055506000600160026008811062000411576200041062000ea5565b5b6006020160010160006101000a81548173ffffffffffffffffffffffffffffffffffffffff021916908373ffffffffffffffffffffffffffffffffffffffff1602179055506040518060400160405280600e81526020017f43616c6d202620436f6c6c6563740000000000000000000000000000000000008152506001600260088110620004a457620004a362000ea5565b5b600602016002019081620004b991906200114e565b506040518060400160405280601e81526020017f57617272696f72206465636964696e6720686973206e657874206d6f76650000815250600160026008811062000508576200050762000ea5565b5b6006020160030190816200051d91906200114e565b5060405180608001604052806056815260200162001c9460569139600160026008811062000550576200054f62000ea5565b5b6006020160040190816200056591906200114e565b50610bb84262000576919062001264565b60016002600881106200058e576200058d62000ea5565b5b6006020160050181905550671bc16d674ec800006001600360088110620005ba57620005b962000ea5565b5b600602016000018190555060006001600360088110620005df57620005de62000ea5565b5b6006020160010160006101000a81548173ffffffffffffffffffffffffffffffffffffffff021916908373ffffffffffffffffffffffffffffffffffffffff1602179055506040518060400160405280600481526020017f5261676500000000000000000000000000000000000000000000000000000000815250600160036008811062000672576200067162000ea5565b5b6006020160020190816200068791906200114e565b506040518060400160405280601081526020017f426174746c652041667465726d617468000000000000000000000000000000008152506001600360088110620006d657620006d562000ea5565b5b600602016003019081620006eb91906200114e565b5060405180608001604052806056815260200162001c3e6056913960016003600881106200071e576200071d62000ea5565b5b6006020160040190816200073391906200114e565b5060b44262000743919062001264565b60016003600881106200075b576200075a62000ea5565b5b6006020160050181905550661550f7dca70000600160046008811062000786576200078562000ea5565b5b600602016000018190555060006001600460088110620007ab57620007aa62000ea5565b5b6006020160010160006101000a81548173ffffffffffffffffffffffffffffffffffffffff021916908373ffffffffffffffffffffffffffffffffffffffff1602179055506040518060400160405280600c81526020017f4c696f6e656c204d65737369000000000000000000000000000000000000000081525060016004600881106200083e576200083d62000ea5565b5b6006020160020190816200085391906200114e565b506040518060400160405280601e81526020017f416e20417267656e74696e69616e20466f6f7462616c6c2047656e69757300008152506001600460088110620008a257620008a162000ea5565b5b600602016003019081620008b791906200114e565b506040518060600160405280602a815260200162001a62602a91396001600460088110620008ea57620008e962000ea5565b5b600602016004019081620008ff91906200114e565b50610bb84262000910919062001264565b600160046008811062000928576200092762000ea5565b5b60060201600501819055506709b6e64a8ec60000600160056008811062000954576200095362000ea5565b5b60060201600001819055506000600160056008811062000979576200097862000ea5565b5b6006020160010160006101000a81548173ffffffffffffffffffffffffffffffffffffffff021916908373ffffffffffffffffffffffffffffffffffffffff1602179055506040518060400160405280600381526020017f4372370000000000000000000000000000000000000000000000000000000000815250600160056008811062000a0c5762000a0b62000ea5565b5b60060201600201908162000a2191906200114e565b506040518060400160405280601c81526020017f4120506f727475677565736520466f6f7462616c6c204c6567656e6400000000815250600160056008811062000a705762000a6f62000ea5565b5b60060201600301908162000a8591906200114e565b50604051806101400160405280610106815260200162001a8c6101069139600160056008811062000abb5762000aba62000ea5565b5b60060201600401908162000ad091906200114e565b506109604262000ae1919062001264565b600160056008811062000af95762000af862000ea5565b5b6006020160050181905550671bc16d674ec80000600160066008811062000b255762000b2462000ea5565b5b60060201600001819055506000600160066008811062000b4a5762000b4962000ea5565b5b6006020160010160006101000a81548173ffffffffffffffffffffffffffffffffffffffff021916908373ffffffffffffffffffffffffffffffffffffffff1602179055506040518060400160405280600281526020017f5239000000000000000000000000000000000000000000000000000000000000815250600160066008811062000bdd5762000bdc62000ea5565b5b60060201600201908162000bf291906200114e565b506040518060400160405280601a81526020017f41204272617a696c6c69616e20466f6f7462616c6c2049636f6e000000000000815250600160066008811062000c415762000c4062000ea5565b5b60060201600301908162000c5691906200114e565b506040518060800160405280604c815260200162001d68604c9139600160066008811062000c895762000c8862000ea5565b5b60060201600401908162000c9e91906200114e565b5060b44262000cae919062001264565b600160066008811062000cc65762000cc562000ea5565b5b6006020160050181905550676f05b59d3b200000600160076008811062000cf25762000cf162000ea5565b5b60060201600001819055506000600160076008811062000d175762000d1662000ea5565b5b6006020160010160006101000a81548173ffffffffffffffffffffffffffffffffffffffff021916908373ffffffffffffffffffffffffffffffffffffffff1602179055506040518060400160405280600d81526020017f546869657272792048656e727900000000000000000000000000000000000000815250600160076008811062000daa5762000da962000ea5565b5b60060201600201908162000dbf91906200114e565b506040518060400160405280601d81526020017f41204672656e636820466f6f7462616c6c204d6173746572636c617373000000815250600160076008811062000e0e5762000e0d62000ea5565b5b60060201600301908162000e2391906200114e565b5060405180608001604052806056815260200162001b9260569139600160076008811062000e565762000e5562000ea5565b5b60060201600401908162000e6b91906200114e565b506104b04262000e7c919062001264565b600160076008811062000e945762000e9362000ea5565b5b60060201600501819055506200129f565b7f4e487b7100000000000000000000000000000000000000000000000000000000600052603260045260246000fd5b600081519050919050565b7f4e487b7100000000000000000000000000000000000000000000000000000000600052604160045260246000fd5b7f4e487b7100000000000000000000000000000000000000000000000000000000600052602260045260246000fd5b6000600282049050600182168062000f5657607f821691505b60208210810362000f6c5762000f6b62000f0e565b5b50919050565b60008190508160005260206000209050919050565b60006020601f8301049050919050565b600082821b905092915050565b60006008830262000fd67fffffffffffffffffffffffffffffffffffffffffffffffffffffffffffffffff8262000f97565b62000fe2868362000f97565b95508019841693508086168417925050509392505050565b6000819050919050565b6000819050919050565b60006200102f62001029620010238462000ffa565b62001004565b62000ffa565b9050919050565b6000819050919050565b6200104b836200100e565b620010636200105a8262001036565b84845462000fa4565b825550505050565b600090565b6200107a6200106b565b6200108781848462001040565b505050565b5b81811015620010af57620010a360008262001070565b6001810190506200108d565b5050565b601f821115620010fe57620010c88162000f72565b620010d38462000f87565b81016020851015620010e3578190505b620010fb620010f28562000f87565b8301826200108c565b50505b505050565b600082821c905092915050565b6000620011236000198460080262001103565b1980831691505092915050565b60006200113e838362001110565b9150826002028217905092915050565b620011598262000ed4565b67ffffffffffffffff81111562001175576200117462000edf565b5b62001181825462000f3d565b6200118e828285620010b3565b600060209050601f831160018114620011c65760008415620011b1578287015190505b620011bd858262001130565b8655506200122d565b601f198416620011d68662000f72565b60005b828110156200120057848901518255600182019150602085019450602081019050620011d9565b868310156200122057848901516200121c601f89168262001110565b8355505b6001600288020188555050505b505050505050565b7f4e487b7100000000000000000000000000000000000000000000000000000000600052601160045260246000fd5b6000620012718262000ffa565b91506200127e8362000ffa565b925082820190508082111562001299576200129862001235565b5b92915050565b6107b380620012af6000396000f3fe60806040526004361061004a5760003560e01c80630e418bf91461004f578063363bc4271461007f5780638da5cb5b146100c1578063bba914e4146100ec578063fc7a900b14610129575b600080fd5b6100696004803603810190610064919061051a565b610145565b6040516100769190610562565b60405180910390f35b34801561008b57600080fd5b506100a660048036038101906100a1919061051a565b61017c565b6040516100b89695949392919061065d565b60405180910390f35b3480156100cd57600080fd5b506100d6610376565b6040516100e391906106d3565b60405180910390f35b3480156100f857600080fd5b50610113600480360381019061010e919061051a565b61039a565b6040516101209190610562565b60405180910390f35b610143600480360381019061013e919061051a565b61041d565b005b60006001826008811061015b5761015a6106ee565b5b600602016000015434106101725760019050610177565b600090505b919050565b6001816008811061018c57600080fd5b600602016000915090508060000154908060010160009054906101000a900473ffffffffffffffffffffffffffffffffffffffff16908060020180546101d19061074c565b80601f01602080910402602001604051908101604052809291908181526020018280546101fd9061074c565b801561024a5780601f1061021f5761010080835404028352916020019161024a565b820191906000526020600020905b81548152906001019060200180831161022d57829003601f168201915b50505050509080600301805461025f9061074c565b80601f016020809104026020016040519081016040528092919081815260200182805461028b9061074c565b80156102d85780601f106102ad576101008083540402835291602001916102d8565b820191906000526020600020905b8154815290600101906020018083116102bb57829003601f168201915b5050505050908060040180546102ed9061074c565b80601f01602080910402602001604051908101604052809291908181526020018280546103199061074c565b80156103665780601f1061033b57610100808354040283529160200191610366565b820191906000526020600020905b81548152906001019060200180831161034957829003601f168201915b5050505050908060050154905086565b60008054906101000a900473ffffffffffffffffffffffffffffffffffffffff1681565b60008073ffffffffffffffffffffffffffffffffffffffff16600183600881106103c7576103c66106ee565b5b6006020160010160009054906101000a900473ffffffffffffffffffffffffffffffffffffffff1673ffffffffffffffffffffffffffffffffffffffff16036104135760019050610418565b600090505b919050565b60088110801561042e575060008110155b61043757600080fd5b6104408161039a565b61044957600080fd5b61045281610145565b61045b57600080fd5b6001816008811061046f5761046e6106ee565b5b6006020160050154421061048257600080fd5b3360018260088110610497576104966106ee565b5b6006020160010160006101000a81548173ffffffffffffffffffffffffffffffffffffffff021916908373ffffffffffffffffffffffffffffffffffffffff16021790555050565b600080fd5b6000819050919050565b6104f7816104e4565b811461050257600080fd5b50565b600081359050610514816104ee565b92915050565b6000602082840312156105305761052f6104df565b5b600061053e84828501610505565b91505092915050565b60008115159050919050565b61055c81610547565b82525050565b60006020820190506105776000830184610553565b92915050565b610586816104e4565b82525050565b600073ffffffffffffffffffffffffffffffffffffffff82169050919050565b60006105b78261058c565b9050919050565b6105c7816105ac565b82525050565b600081519050919050565b600082825260208201905092915050565b60005b838110156106075780820151818401526020810190506105ec565b60008484015250505050565b6000601f19601f8301169050919050565b600061062f826105cd565b61063981856105d8565b93506106498185602086016105e9565b61065281610613565b840191505092915050565b600060c082019050610672600083018961057d565b61067f60208301886105be565b81810360408301526106918187610624565b905081810360608301526106a58186610624565b905081810360808301526106b98185610624565b90506106c860a083018461057d565b979650505050505050565b60006020820190506106e860008301846105be565b92915050565b7f4e487b7100000000000000000000000000000000000000000000000000000000600052603260045260246000fd5b7f4e487b7100000000000000000000000000000000000000000000000000000000600052602260045260246000fd5b6000600282049050600182168061076457607f821691505b6020821081036107775761077661071d565b5b5091905056fea2646970667358221220fb6f5366c28251ce875e5b87653bad7dd63af50f5651d4405b8ee89fe14466ec64736f6c6343000810003368747470733a2f2f77616c6c7061706572636176652e636f6d2f77702f7770333635323238362e706e6768747470733a2f2f73636f6e74656e742e66797a64312d332e666e612e666263646e2e6e65742f762f7433392e33303830382d362f3234393034313935355f31303135383939343338313632323734365f323533323132333539353932353136363934385f6e2e6a70673f5f6e635f6361743d313036266363623d312d37265f6e635f7369643d393236376665265f6e635f6f68633d346c563278416e4a736a7341582d6373375177265f6e635f68743d73636f6e74656e742e66797a64312d332e666e61266f683d30305f41543964735f66794c5137517449325a545f716556562d73386851753369705a4d34494979786446494c502d6851266f653d363330363731363368747470733a2f2f7777772e726574726f636c617369636f2e636f2e756b2f77702d636f6e74656e742f75706c6f6164732f323032302f30382f544849455252592d48454e52592d5351554152452e66775f2e706e6768747470733a2f2f7261772e67697468756275736572636f6e74656e742e636f6d2f41324b6579616e2f4348452d313134382d41737369676e6d656e74332d466967757265732f6d61696e2f4f6269746f312e4a504768747470733a2f2f7261772e67697468756275736572636f6e74656e742e636f6d2f41324b6579616e2f4348452d313134382d41737369676e6d656e74332d466967757265732f6d61696e2f4f6269746f342e4a504768747470733a2f2f7261772e67697468756275736572636f6e74656e742e636f6d2f41324b6579616e2f4348452d313134382d41737369676e6d656e74332d466967757265732f6d61696e2f4f6269746f332e4a504768747470733a2f2f7261772e67697468756275736572636f6e74656e742e636f6d2f41324b6579616e2f4348452d313134382d41737369676e6d656e74332d466967757265732f6d61696e2f4f6269746f322e4a5047496e6e6f63656e7420626f7920656167657220746f206265636f6d6520636c616e206c656164657268747470733a2f2f692e70696e696d672e636f6d2f6f726967696e616c732f65302f33632f36312f65303363363165376230336533313265653963616161633866653434623136652e6a7067",
  "immutableReferences": {},
  "source": "// SPDX-License-Identifier: MIT\npragma solidity >=0.4.22 <0.9.0;\n\nuint256 constant ITEMS=8;\n\ncontract ArtWork {\n    address public owner = msg.sender; //set public address as owner property on blockchain\n\n    struct Art {\n        uint256 price; //starting as static and bring it down to 0 once its bought (disappears from homepage after bought)\n        address owner;\n        string name;\n        string description;\n        string image;\n        uint256 exptime;\n    }\n\n    Art[ITEMS] public postings;\n\n    constructor() {\n\n        postings[0].price=3e17;\n        postings[0].owner=address(0x0);\n        postings[0].name=\"Smiley\";\n        postings[0].description=\"Innocent boy eager to become clan leader\";\n        postings[0].image='https://raw.githubusercontent.com/A2Keyan/CHE-1148-Assignment3-Figures/main/Obito1.JPG';\n        postings[0].exptime = block.timestamp + 1 minutes;\n\n        postings[1].price=1e18;\n        postings[1].owner=address(0x0);\n        postings[1].name=\"Despair\";\n        postings[1].description=\"Lost of All Hope\";\n        postings[1].image=\"https://raw.githubusercontent.com/A2Keyan/CHE-1148-Assignment3-Figures/main/Obito2.JPG\";\n        postings[1].exptime = block.timestamp + 5 minutes;\n\n        postings[2].price=7e17;\n        postings[2].owner=address(0x0);\n        postings[2].name=\"Calm & Collect\";\n        postings[2].description=\"Warrior deciding his next move\";\n        postings[2].image=\"https://raw.githubusercontent.com/A2Keyan/CHE-1148-Assignment3-Figures/main/Obito3.JPG\";\n        postings[2].exptime = block.timestamp + 50 minutes;\n\n        postings[3].price=2e18;\n        postings[3].owner=address(0x0);\n        postings[3].name=\"Rage\";\n        postings[3].description=\"Battle Aftermath\";\n        postings[3].image=\"https://raw.githubusercontent.com/A2Keyan/CHE-1148-Assignment3-Figures/main/Obito4.JPG\";\n        postings[3].exptime = block.timestamp + 3 minutes;\n\n        postings[4].price=6e15;\n        postings[4].owner=address(0x0);\n        postings[4].name=\"Lionel Messi\";\n        postings[4].description=\"An Argentinian Football Genius\";\n        postings[4].image=\"https://wallpapercave.com/wp/wp3652286.png\";\n        postings[4].exptime = block.timestamp + 50 minutes;\n\n        postings[5].price=7e17;\n        postings[5].owner=address(0x0);\n        postings[5].name=\"Cr7\";\n        postings[5].description=\"A Portuguese Football Legend\";\n        postings[5].image=\"https://scontent.fyzd1-3.fna.fbcdn.net/v/t39.30808-6/249041955_10158994381622746_2532123595925166948_n.jpg?_nc_cat=106&ccb=1-7&_nc_sid=9267fe&_nc_ohc=4lV2xAnJsjsAX-cs7Qw&_nc_ht=scontent.fyzd1-3.fna&oh=00_AT9ds_fyLQ7QtI2ZT_qeVV-s8hQu3ipZM4IIyxdFILP-hQ&oe=63067163\";\n        postings[5].exptime = block.timestamp + 40 minutes;\n\n        postings[6].price=2e18;\n        postings[6].owner=address(0x0);\n        postings[6].name=\"R9\";\n        postings[6].description=\"A Brazillian Football Icon\";\n        postings[6].image=\"https://i.pinimg.com/originals/e0/3c/61/e03c61e7b03e312ee9caaac8fe44b16e.jpg\";\n        postings[6].exptime = block.timestamp + 3 minutes;\n\n        postings[7].price=8e18;\n        postings[7].owner=address(0x0);\n        postings[7].name=\"Thierry Henry\";\n        postings[7].description=\"A French Football Masterclass\";\n        postings[7].image=\"https://www.retroclasico.co.uk/wp-content/uploads/2020/08/THIERRY-HENRY-SQUARE.fw_.png\";\n        postings[7].exptime = block.timestamp + 20 minutes;\n        \n    //uint endTime = block.timestamp + 60 minutes;\n\n    }\n    //Function to purchase the ticket with multiple requirements needing to be satisfied for a valid transaction\n    function buyArt(uint256 _index) external payable {\n        require(_index < ITEMS && _index >=0); //making sure that the index is a real number\n        require(check_if_available (_index)); //calling the check_if_available function (explained below)\n        require(check_sufficient_funds(_index)); //calling the check_sufficient_funds function (explained below)\n        require(block.timestamp < postings[_index].exptime); //ensuring the item is not expired. IF TIME EXPIRES, THE SMART CONTRACT WILL FAIL (tested)\n        postings[_index].owner=msg.sender; //once bought, changing the ticket owner to the account holder of the wallet \n    }\n\n    //Function to check if there is sufficient funds in the persons wallet before purchasing\n\tfunction check_sufficient_funds (uint _index) public payable returns (bool) {\n\t\tif (msg.value >= postings[_index].price) {\n\t\t\treturn true;\n\t\t} else {\n\t\t\treturn false;\n\t\t}\n\t}  \n\n    //Function to check if the product they are purchasing is still available for sale with address = 0x0\n\tfunction check_if_available (uint _index) public view returns (bool) {\n\t\tif (postings[_index].owner == address(0x0)) {\n\t\t\treturn true;\n\t\t} else {\n\t\t\treturn false;\n\t\t}\n\t}\n}",
  "sourcePath": "/Users/athmhak/DApp/contracts/ArtWork.sol",
  "compiler": {
    "name": "solc",
    "version": "0.8.16+commit.07a7930e.Emscripten.clang"
  },
  "schemaVersion": "3.4.9",
  "updatedAt": "2022-08-24T00:19:54.567Z",
  "networkType": "ethereum",
  "devdoc": {
    "kind": "dev",
    "methods": {},
    "version": 1
  },
  "userdoc": {
    "kind": "user",
    "methods": {},
    "version": 1
  }
}